:100000000C943E010C945B010C945B010C945B011D
:100010000C945B010C945B010C945B010C945B01F0
:100020000C945B010C945B010C945B010C945B01E0
:100030000C945B010C9431030C945B010C945B01F8
:100040000C945B010C945B010C945B010C945B01C0
:100050000C945B010C945B010C945B010C945B01B0
:100060000C945B010C945B010C945B010C945B01A0
:100070000C948A020C9463020C945B0100C0C101D1
:10008000C30302C2C60607C705C5C404CC0C0DCD08
:100090000FCFCE0E0ACACB0BC90908C8D81819D978
:1000A0001BDBDA1A1EDEDF1FDD1D1CDC14D4D515A8
:1000B000D71716D6D21213D311D1D010F03031F198
:1000C00033F3F23236F6F737F53534F43CFCFD3DC8
:1000D000FF3F3EFEFA3A3BFB39F9F83828E8E929B8
:1000E000EB2B2AEAEE2E2FEF2DEDEC2CE42425E568
:1000F00027E7E62622E2E323E12120E0A06061A1D8
:1001000063A3A26266A6A767A56564A46CACAD6D87
:10011000AF6F6EAEAA6A6BAB69A9A86878B8B979F7
:10012000BB7B7ABABE7E7FBF7DBDBC7CB47475B527
:1001300077B7B67672B2B373B17170B05090915117
:100140009353529296565797559594549C5C5D9D47
:100150005F9F9E5E5A9A9B5B995958988848498937
:100160004B8B8A4A4E8E8F4F8D4D4C8C44848545E7
:1001700087474686824243834181804000C1814057
:1001800001C0804101C0804100C1814001C0804167
:1001900000C1814000C1814001C0804101C0804157
:1001A00000C1814000C1814001C0804100C1814047
:1001B00001C0804101C0804100C1814001C0804137
:1001C00000C1814000C1814001C0804100C1814027
:1001D00001C0804101C0804100C1814000C1814017
:1001E00001C0804101C0804100C1814001C0804107
:1001F00000C1814000C1814001C0804101C08041F7
:1002000000C1814000C1814001C0804100C18140E6
:1002100001C0804101C0804100C1814000C18140D6
:1002200001C0804101C0804100C1814001C08041C6
:1002300000C1814000C1814001C0804100C18140B6
:1002400001C0804101C0804100C1814001C08041A6
:1002500000C1814000C1814001C0804101C0804196
:1002600000C1814000C1814001C0804100C1814086
:1002700001C0804101C0804100C1814011241FBEE6
:10028000CFEFD0E1DEBFCDBF11E0A0E0B1E0E4ED03
:10029000FAE102C005900D92AA33B107D9F723E025
:1002A000AAE3B1E001C01D92A636B207E1F70E94B1
:1002B000E20B0C94680D0C940000F82FE92F9B01C1
:1002C000CA01683E43E07407D0F0AB01480F591FE4
:1002D0004D3E5340A0F4AF2FBE2F220F331FF90124
:1002E000E659F640009709F408952081318132964D
:1002F0003C9311962C93119701971296F3CF81E0BE
:1003000090E0089581E090E0089581E090E0089504
:10031000429A5D9A2FEF8DE399E4215080409040FE
:10032000E1F700C000005D98089542985D9A2FEFB4
:100330008DE399E4215080409040E1F700C0000037
:100340005D980895AF92BF92CF92DF92EF92FF92A5
:100350000F931F93CF93DF93EB016A017901683EFE
:1003600023E0720708F44BC09A0121503109260F8F
:10037000371F2C34344008F042C0CC0FDD1FCC5363
:10038000D6408C01B12CA12CAC14BD0469F490E0D2
:1003900080E0DF91CF911F910F91FF90EF90DF9060
:1003A000CF90BF90AF900895E114F10461F489817A
:1003B000F801808388818183FFEFAF1ABF0A2296FC
:1003C0000E5F1F4FE1CFF1E0EF16F104A9F7F8013E
:1003D0009081818199838883809196019091970182
:1003E0008130910539F40E94880110929701109292
:1003F0009601E2CF029701F70E949501F6CF81E0C6
:1004000090E0C7CF9091C90098609093C90088236D
:1004100069F08091C90080698093C9008091C9000A
:10042000662341F088628093C90008958091C900D5
:100430008F76F2CF8F7DF7CFEF92FF920F931F93BE
:10044000CF93C22F9A01AB0184E0220F331F441FC8
:10045000551F8A95D1F760E072E18AE790E00E942B
:10046000FF0B215031093093CD002093CC00013097
:100470001105C9F002301105C1F480E2C730B9F0AE
:10048000C83009F486609091CA00892B8093CA0015
:1004900060E080E00E94020281E0CF911F910F9105
:1004A000FF90EF90089580E3E9CF80E0E7CF84608C
:1004B000EACF8093CE0081E008952091CE00FC0128
:1004C000208381E008951F920F920FB60F9211249E
:1004D0002F933F934F935F936F937F938F939F934C
:1004E000AF93BF93EF93FF93E0915C02F0915D02B5
:1004F0000995FF91EF91BF91AF919F918F917F915E
:100500006F915F914F913F912F910F900FBE0F9080
:100510001F9018951F920F920FB60F9211242F93D0
:100520003F934F935F936F937F938F939F93AF937B
:10053000BF93EF93FF93E0916002F0916102099500
:10054000FF91EF91BF91AF919F918F917F916F91AB
:100550005F914F913F912F910F900FBE0F901F9081
:1005600018951092420181E0089521E02093420104
:10057000909344018093430181E00895FC018091B0
:100580004201882349F08091430190914401918375
:1005900080831092420181E00895109285001092AC
:1005A00084008091450190914601892B69F08091EA
:1005B0006F00826080936F008091450190914601A9
:1005C000909389008093880080918100856080935A
:1005D00081000895E1E8F0E080818A7F8083EFE682
:1005E000F0E080818D7F8083B19A0895CF93DF936F
:1005F00000D000D0CDB7DEB79C01A4E8BEE10E94D8
:10060000210C69837A838B839C830E94D10C20E028
:1006100030E44CE956E469837A838B839C83698157
:100620007A818B819C810E94300C69837A838B83D1
:100630009C8369817A818B819C810E94A20C70933A
:1006400046016093450110928000109281000E9443
:10065000EA0281E00F900F900F900F90DF91CF9101
:1006600008951F920F920FB60F9211242F933F936C
:100670004F935F936F937F938F939F93AF93BF93AA
:10068000EF93FF93E0915E02F0915F020995FF9175
:10069000EF91BF91AF919F918F917F916F915F91FA
:1006A0004F913F912F910F900FBE0F901F90189573
:1006B0009C01680F791F8FEF9FEF2617370709F40A
:1006C0000895D901ED919D018E27482F50E0FA0140
:1006D000E458FE4F84918927FA01E458FF4F949122
:1006E000ECCFEF92FF920F931F93CF93DF93FC0118
:1006F000862F642FA901980187019FEF980F973FDC
:1007000038F480935901309731F0319709F449C09A
:10071000C2E0D0E03EC0E5E7F5E0F0935601E0939B
:100720005501E2E8F5E0F0935401E0935301E1EC68
:10073000F5E0F0935801E0935701EBE8F5E0F09312
:100740005201E09351011092500110924F01E9E1E2
:10075000F6E0F0936102E0936002EDE6F6E0F093DC
:100760005D02E0935C02EDEAF6E0F0935F02E09355
:100770005E020E943B05EC01892B59F40E94B102F4
:10078000882309F43FC081E090E090933101809389
:100790003001CE01DF91CF911F910F91FF90EF902B
:1007A0000895E7EEF6E0F0935601E0935501E5EF8A
:1007B000F6E0F0935401E0935301E9E3F7E0F0939E
:1007C0005801E0935701EEEFF6E0F0935201E09309
:1007D00051011092500110924F01E8E8F7E0F093B8
:1007E0006102E0936002E0E4F8E0F0935D02E093E0
:1007F0005C02E5EDF8E0F0935F02E0935E020E9498
:10080000CA06B9CFC3E0D0E0C4CFAB011816D4F507
:10081000F894E0E0F1E030E020E0672B29F161811D
:1008200072816115710569F4F901EE0FFF1FE20F86
:10083000F31FE050FF4F80835283418390E080E0BC
:100840000BC06417750781F32F5F3F4F339620313C
:10085000310529F784E090E0789408952F5F3F4FA9
:1008600033962031310551F390819813F7CFF90178
:10087000EE0FFF1FE20FF31FE050FF4F10821282B6
:100880001182DCCF82E090E0089580913001909158
:100890003101019751F4E0914F01F09150013097EF
:1008A00009F0099590E080E0089586E090E00895D1
:1008B0008091300190913101019761F4E0915501EF
:1008C000F09156010995109231011092300190E09B
:1008D00080E0089586E090E00895CF93DF93C09183
:1008E0003001D0913101209779F4E0915301F091DA
:1008F0005401099581E090E090933101809330019B
:10090000CE01DF91CF910895219719F0C6E0D0E094
:10091000F7CFD0E0C0E0F4CF0F931F93CF93DF93D6
:1009200000D0CDB7DEB70091300110913101011533
:10093000110509F09DC0CE0101960E94BE028130D2
:1009400039F489819A818130910551F0029721F122
:10095000C8010F900F90DF91CF911F910F910895D3
:10096000E0915101F09152014AE451E06CE471E0F0
:100970008EE491E00995892B59F780914E01909171
:100980005901891711F08111E3CF82E090E00E94B4
:10099000B50210E000E0DCCF80914C0190914D0158
:1009A000FC0140814093490121E030E0309348014F
:1009B00020934701E0E0F1E030E020E05081552352
:1009C00099F045134DC0F901EE0FFF1FE20FF31F21
:1009D000E050FF4F0180F281E02D6AE471E009955B
:1009E000909348018093470180914E01882309F438
:1009F000AFCF20914701309148012115310501F118
:100A0000E0914C01F0914D018091490141E050E0AD
:100A100050934B0140934A0180688083E0914C01E0
:100A2000F0914D0180914A0190914B01AC014F5FD3
:100A30005F4F50934B0140934A01E80FF91F208309
:100A400040914A0150914B0160914C0170914D01D0
:100A5000E0915701F091580180915901099578CFA3
:100A60002F5F3F4F33962031310509F0A7CFBCCF20
:100A700006E010E06DCFCF92DF92EF92FF920F93DE
:100A80001F93862F69017A01F89428E0BA01A60124
:100A90000E941C028130E1F423E230E040E050E0AB
:100AA00081E0C8168BE4D806E104F10460F4A701E4
:100AB0009601220F331F441F551F60EA7FE787E12D
:100AC00090E00E94FF0BC9010E94F602813051F0B4
:100AD00083E090E078941F910F91FF90EF90DF906A
:100AE000CF90089590E080E0F5CFF89410926101E6
:100AF0001092600160E081E00E9402020E94CD023B
:100B000078940895F89460E080E00E9402020E94C8
:100B1000EA0278940895EF92FF920F931F93CF9378
:100B2000DF937C01EB018A01F89480915A01909146
:100B30005B01049750F485E090E07894DF91CF91C9
:100B40001F910F91FF90EF90089560915A0170915D
:100B50005B0186E692E00E945803009761F72091BE
:100B60006602F701208320915A0130915B012350E6
:100B70003109F8013183208327E632E03983288365
:100B8000DCCFCF93DF93282FCB01F894C091600185
:100B9000D0916101C130D10509F048C0019790930F
:100BA0005F0180935E01D0935D01C0935C01FC0105
:100BB000208320915C0130915D01240F351F30931B
:100BC0005D0120935C0160915C0170915D010E9468
:100BD0005803492F20915C0130915D01B9016F5F8D
:100BE0007F4F70935D0160935C012A593D4FF9017D
:100BF000808380915C0190915D019C012F5F3F4F4C
:100C000030935D0120935C018A599D4FFC01408324
:100C1000D0936301C093620161E080E00E94020210
:100C200090E080E07894DF91CF91089585E090E0A6
:100C3000F9CFCF93DF930F92CDB7DEB7CE010196F8
:100C40000E945D0280916001909161018230910566
:100C500041F128F4892B51F40E94CD0202C0039780
:100C6000D9F380E00F90DF91CF91089510925B014E
:100C700010925A0180915A0190915B019C012F5F63
:100C80003F4F30935B0120935A0129818A599D4F30
:100C9000FC01208382E090E09093610180936001E9
:100CA000DBCF80915A0190915B018F3F910509F054
:100CB00088F480915A0190915B019C012F5F3F4F16
:100CC00030935B0120935A0129818A599D4FFC0181
:100CD0002083C2CF83E090E0DFCFCF938091620189
:100CE00090916301009731F0019749F0C0E08C2F9B
:100CF000CF91089560E081E00E940202F7CF8091D9
:100D00005C0190915D01892BD1F0E0915E01F09141
:100D10005F0180810E94590280915E0190915F0184
:100D2000019690935F0180935E0180915C019091A8
:100D30005D01019790935D0180935C01D7CF83E0C3
:100D400090E00E94B502C82F60E081E00E9402029C
:100D50001092630110926201CACFCF93809160011B
:100D600090916101009731F0C0E0029741F481E079
:100D700090E002C090E080E00E94B502C82F0E947F
:100D8000EA0281E090E090936101809360018C2FF2
:100D9000CF9108950F931F93862FBA01A901F8945C
:100DA0009AE09093640127E00E941C02813031F4A4
:100DB00080E29EE40E94F602813031F083E090E010
:100DC00078941F910F91089590E080E0F9CFF89406
:100DD00060E081E00E94020210926F0110926E01A9
:100DE000789490E080E00C94B502F89460E080E0A4
:100DF0000E9402020E94EA02789408950F931F93C2
:100E0000CF93DF93EC018B01DA01F89480916C01B0
:100E100090916D01039750F140916C0150916D01DB
:100E20004A595D4F20E086E692E084179507C9F4A1
:100E300021111CC080916602888380916C01909181
:100E40006D0102978D939C9387E692E0F801918360
:100E5000808390E080E07894DF91CF911F910F9193
:100E60000895FC013191CF01230FDFCF85E090E0A1
:100E7000F2CFCF93DF93FB019A01F894C0916E01FA
:100E8000D0916F01209709F040C03197F09369012C
:100E9000E093680141E050E05093670140936601A0
:100EA00080838091660190916701820F931F9093D8
:100EB000670180936601209166013091670180E0AF
:100EC00021503109F8F48195209166013091670134
:100ED000A9014F5F5F4F50936701409366012A5904
:100EE0003D4FF901808381E090E090937101809300
:100EF000700161E080E00E9402027894CE01DF91EF
:100F0000CF9108959191890FDBCFC5E0D0E0F5CF67
:100F1000CF93DF930F92CDB7DEB7CE0101960E943B
:100F20005D0280916E0190916F018130910549F0D1
:100F30008230910509F468C0892B09F490C080E0E3
:100F400072C00E94CD0299819A3349F410926B01CC
:100F500010926A0110926D0110926C01F0CF9D30D9
:100F600039F482E090E090936F0180936E01E7CFB7
:100F700080ED890F8A3030F08FEB890F863018F5BD
:100F800089EC890F20916A0130916B01211531059F
:100F9000E1F02130310599F6E0916C01F0916D019D
:100FA000EA59FD4F9081892B808380916C0190914B
:100FB0006D01019690936D0180936C0110926B010D
:100FC00010926A01BCCF8FEFDDCF20916C01309180
:100FD0006D012F3F310509F080F4E0916C01F09133
:100FE0006D01EA59FD4F8295807F808381E090E01A
:100FF00090936B0180936A01A2CF10926F011092BF
:101000006E010E94EA029BCF89819091640189134D
:101010000EC00E94EA0210926F0110926E0181E0F0
:1010200090E00E94B5020F90DF91CF9108958A332E
:1010300089F410926B0110926A0110926D01109266
:101040006C0181E090E090936F0180936E010E94AB
:10105000CD0275CF10926F0110926E0170CF898111
:101060008A3309F06CCF0E94CD0210926D0110926C
:101070006C0110926B0110926A0181E090E073CFD5
:10108000CF93809170019091710182309105F9F0B8
:1010900038F4892B71F460E081E00E94020207C0FD
:1010A0008330910509F466C0049709F46AC0C0E072
:1010B00079C08AE30E94590282E090E09093710126
:1010C0008093700110926B0110926A01F0CF8091B1
:1010D000660190916701892B09F442C080916A01F1
:1010E00090916B01009721F1019709F7E091680158
:1010F000F091690180818F708A3080F5805D0E9457
:10110000590280916801909169010196909369015B
:101110008093680110926B0110926A0180916601C0
:101120009091670101979093670180936601BFCF0B
:10113000E0916801F09169019081892F82958F700B
:10114000903A50F4805D0E94590281E090E09093C3
:101150006B0180936A01ABCF895CF5CF895CCFCFFF
:101160008DE00E94590283E090E09093710180939A
:1011700070019DCF809164010E94590284E090E04B
:10118000F4CF109271011092700183E090E00E9400
:10119000B502C82F60E081E00E9402021092710146
:1011A000109270018C2FCF91089580916E019091D3
:1011B0006F010197029720F410926F0110926E0157
:1011C0000E94EA0280E008951F93CF93DF93FC0111
:1011D000EB0188819981059709F041C083814481A1
:1011E000582FCA0101978F3C9740C8F52181628131
:1011F0001982188281E08083888199810196998380
:101200008883CA0133E0969587953A95E1F7182FC0
:10121000DA01A770BB27AB2B11F011E0180F118377
:1012200088819981019699838883722F6F5F7F4FA0
:1012300030E020E0CF0102960E948201009729F061
:10124000DF91CF911F910C94D60B28813981210F0A
:10125000311D39832883DF91CF911F91089583E059
:1012600090E0F9CFCF93DF9300D0CDB7DEB7FC018C
:10127000DB018D919C91059729F58481811122C014
:1012800083819FEF980F9E3FE8F0918162811A82DF
:101290008F3FB1F481E08983792F6F5F7F4F21E029
:1012A00030E041E050E0CE0101960E9482010097BB
:1012B00011F00E94D60B0F900F90DF91CF910895FF
:1012C0001982EACF83E090E0F6CFCF93DF93FC0161
:1012D000EB0188819981069790F183814481582F91
:1012E0009A0183E0369527958A95E1F7822FBA0116
:1012F00067707727672B11F081E0820F9A012150E8
:101300003109203B3740D8F49581891318C0818179
:101310006281782F6F5F7F4F21E030E0CF0106962A
:101320000E948201009721F0DF91CF910C94D60B9F
:1013300025E030E039832883DF91CF91089583E061
:1013400090E0FACFFC01DB018D919C91059789F427
:1013500081816281782F6F5F7F4F21E030E041E033
:1013600050E0CF0103960E94A201009721F00C9457
:10137000D60B83E090E00895CF93DF93FC01EB015F
:1013800088819981069728F183814481582FCA0169
:10139000019788379105E8F49581842F880F891388
:1013A00018C081816281782F6F5F7F4F21E030E02C
:1013B000CF0106960E94A201009721F0DF91CF9104
:1013C0000C94D60B25E030E039832883DF91CF9150
:1013D000089583E090E0FACF0F931F93CF93DF93AC
:1013E000FC01EB01888199810597D9F58481082F4B
:1013F00010E09801215031092D37310590F54181D8
:1014000062811982188293E09083288139812F5F4D
:101410003F4F39832883880F818388819981019682
:1014200099838883742F6F5F7F4F30E020E0A8019D
:10143000CF0102960E94A201009731F0DF91CF9177
:101440001F910F910C94D60B000F111F2881398129
:10145000020F131F19830883DF91CF911F910F9102
:10146000089583E090E0F8CFCF92DF92EF92FF9261
:101470000F931F93CF93DF93EC018B01FB018081CE
:1014800091810A9708F45AC08B81EC80F82EC7012D
:1014900001978D37910508F054C08F814885582FEA
:1014A000CA0101978937910508F04BC02985CA0107
:1014B000880F991F2817190609F043C0C980DA80E0
:1014C0008D816E81782F6F5F7F4F21E030E0CE01FC
:1014D0000A960E94A2010097B9F5F80111821082C4
:1014E00087E18883808191810196918380838E2D0D
:1014F000880F8983808191810196918380837C2DDF
:101500006D2D6F5F7F4F30E020E0A701CE01029686
:101510000E94A2010097C1F4EE0CFF1CF80120818B
:101520003181E20EF31EF182E082DF91CF911F91B3
:101530000F91FF90EF90DF90CF90089590E080E0C2
:10154000F4CF83E090E0F1CFDF91CF911F910F9125
:10155000FF90EF90DF90CF900C94D60B0F931F93DA
:10156000CF93DF93FC01EB01888199810597C1F549
:1015700083810481182FC80101978C37910580F56C
:10158000218162811982188284E080838881998117
:10159000019699838883802F880F81838881998120
:1015A000019699838883722F6F5F7F4FA801CF01C7
:1015B00002960E945D01009731F0DF91CF911F915B
:1015C0000F910C94D60B000F111F28813981020F47
:1015D000131F19830883DF91CF911F910F910895F5
:1015E00083E090E0F8CFCF93DF93962FBA01A90163
:1015F000E9012296C032D10500F58093740122E002
:1016000030E0309373012093720181E0911101C0A9
:1016100080E08195809375014115510551F086E771
:1016200091E00E945F0DD0937301C093720150E06E
:1016300040E0CA01DF91CF91089544E050E0F9CF36
:101640000F931F93CF93DF938B01C0917201D091C1
:101650007301AE0164E771E001960E945F0D21966F
:10166000F801D183C08390E080E0DF91CF911F919A
:101670000F9108951F93CF93DF93FC01EB018881B5
:101680009981059709F03FC083814481582FCA0191
:1016900001978F3C9740B8F52181628119821882A9
:1016A00082E0808388819981019699838883CA0129
:1016B00033E0969587953A95E1F7182FDA01A770F0
:1016C000BB27AB2B11F011E0180F11838881998192
:1016D000019699838883722F6F5F7F4FCF010296A7
:1016E0000E948501009729F0DF91CF911F910C9402
:1016F000D60B28813981210F311D39832883DF9151
:10170000CF911F91089583E090E0F9CFCF93DF93BD
:10171000FC0130E0EB0183E0D695C7958A95E1F7AF
:101720006770772781E090E002C0880F991F4A9583
:10173000E2F70197DF01AC0FBD1F4C912196EC0F32
:10174000FD1F5081062E02C0880F991F0A94E2F7F0
:101750008095909548235923C90102C0880F991F8D
:101760006A95E2F7842B952B8C939083DF91CF9130
:1017700008959B01FB0153E0F695E7955A95E1F733
:10178000E80FF91F8081918127703327BC0102C0C7
:10179000769567952A95E2F781E090E002C0880F80
:1017A000991F4A95E2F70197862308959C010897AF
:1017B00030F42E5C3E4FF901808190E0089584E082
:1017C00090E00895559A3A9AF12CE12C00E016E940
:1017D00020E030E040E06AE090E080E00E947103A9
:1017E00078940E9458040E948C0480913A01909150
:1017F0003B01019690933B0180933A01F4CFA1E223
:101800001A2EAA1BBB1BFD010DC0AA1FBB1FEE1F7A
:10181000FF1FA217B307E407F50720F0A21BB30BC5
:10182000E40BF50B661F771F881F991F1A9469F741
:1018300060957095809590959B01AC01BD01CF019D
:101840000895A29FB001B39FC001A39F700D811D99
:101850001124911DB29F700D811D1124911D0895B9
:101860000E94440C0C94250D0E941E0D58F00E94FD
:10187000170D40F029F45F3F29F00C940E0D511123
:101880000C94590D0C94140D0E94360D68F3992395
:10189000B1F3552391F3951B550BBB27AA2762176C
:1018A0007307840738F09F5F5F4F220F331F441F79
:1018B000AA1FA9F335D00E2E3AF0E0E832D09150AD
:1018C0005040E695001CCAF72BD0FE2F29D0660F9A
:1018D000771F881FBB1F261737074807AB07B0E8DD
:1018E00009F0BB0B802DBF01FF2793585F4F3AF0E3
:1018F0009E3F510578F00C940E0D0C94590D5F3FEE
:10190000E4F3983ED4F3869577956795B795F79568
:101910009F5FC9F7880F911D9695879597F9089550
:10192000E1E0660F771F881FBB1F621773078407EC
:10193000BA0720F0621B730B840BBA0BEE1F88F7FB
:10194000E09508950E943E0D88F09F5798F0B92FBA
:101950009927B751B0F0E1F0660F771F881F991FE4
:101960001AF0BA95C9F714C0B13091F00E94580D21
:10197000B1E008950C94580D672F782F8827B85F31
:1019800039F0B93FCCF3869577956795B395D9F73C
:101990003EF490958095709561957F4F8F4F9F4F46
:1019A0000895E89409C097FB3EF490958095709552
:1019B00061957F4F8F4F9F4F9923A9F0F92F96E99B
:1019C000BB279395F695879577956795B795F11110
:1019D000F8CFFAF4BB0F11F460FF1BC06F5F7F4FAD
:1019E0008F4F9F4F16C0882311F096E911C07723BF
:1019F00021F09EE8872F762F05C0662371F096E8C8
:101A0000862F70E060E02AF09A95660F771F881F96
:101A1000DAF7880F9695879597F9089597F99F6754
:101A200080E870E060E008959FEF80EC0895002466
:101A30000A941616170618060906089500240A9433
:101A400012161306140605060895092E0394000CB9
:101A500011F4882352F0BB0F40F4BF2B11F460FF48
:101A600004C06F5F7F4F8F4F9F4F089557FD905871
:101A7000440F551F59F05F3F71F04795880F97FB52
:101A8000991F61F09F3F79F087950895121613060C
:101A90001406551FF2CF4695F1DF08C0161617063B
:101AA0001806991FF1CF8695710561050894089570
:101AB000E894BB2766277727CB0197F90895FB01A8
:101AC000DC0102C001900D9241505040D8F70895BA
:041AD000F894FFCFB8
:101AD40011200B04AE0A03EC0910BC0906A2091775
:101AE400340A01E4080532090F6509023A0B0000C3
:101AF40000000000000000000000000000000000E2
:0A1B040002000002040404040406B9
:00000001FF
