:100000000C943E010C945B010C945B010C945B011D
:100010000C945B010C945B010C945B010C945B01F0
:100020000C945B010C945B010C945B010C945B01E0
:100030000C945B010C945B010C945B010C945B01D0
:100040000C9493030C945B010C945B010C945B0186
:100050000C945B010C945B010C945B010C945B01B0
:100060000C945B010C945B010C945B010C945B01A0
:100070000C94FA020C94D3020C945B0100C0C101F1
:10008000C30302C2C60607C705C5C404CC0C0DCD08
:100090000FCFCE0E0ACACB0BC90908C8D81819D978
:1000A0001BDBDA1A1EDEDF1FDD1D1CDC14D4D515A8
:1000B000D71716D6D21213D311D1D010F03031F198
:1000C00033F3F23236F6F737F53534F43CFCFD3DC8
:1000D000FF3F3EFEFA3A3BFB39F9F83828E8E929B8
:1000E000EB2B2AEAEE2E2FEF2DEDEC2CE42425E568
:1000F00027E7E62622E2E323E12120E0A06061A1D8
:1001000063A3A26266A6A767A56564A46CACAD6D87
:10011000AF6F6EAEAA6A6BAB69A9A86878B8B979F7
:10012000BB7B7ABABE7E7FBF7DBDBC7CB47475B527
:1001300077B7B67672B2B373B17170B05090915117
:100140009353529296565797559594549C5C5D9D47
:100150005F9F9E5E5A9A9B5B995958988848498937
:100160004B8B8A4A4E8E8F4F8D4D4C8C44848545E7
:1001700087474686824243834181804000C1814057
:1001800001C0804101C0804100C1814001C0804167
:1001900000C1814000C1814001C0804101C0804157
:1001A00000C1814000C1814001C0804100C1814047
:1001B00001C0804101C0804100C1814001C0804137
:1001C00000C1814000C1814001C0804100C1814027
:1001D00001C0804101C0804100C1814000C1814017
:1001E00001C0804101C0804100C1814001C0804107
:1001F00000C1814000C1814001C0804101C08041F7
:1002000000C1814000C1814001C0804100C18140E6
:1002100001C0804101C0804100C1814000C18140D6
:1002200001C0804101C0804100C1814001C08041C6
:1002300000C1814000C1814001C0804100C18140B6
:1002400001C0804101C0804100C1814001C08041A6
:1002500000C1814000C1814001C0804101C0804196
:1002600000C1814000C1814001C0804100C1814086
:1002700001C0804101C0804100C1814011241FBEE6
:10028000CFEFD0E1DEBFCDBF11E0A0E0B1E0EEE8FE
:10029000FDE102C005900D92AA33B107D9F723E022
:1002A000AAE3B1E001C01D92AE35B207E1F70E94AA
:1002B000440C0C94C50E0C9400003A9A389808959A
:1002C000892B11F0429A089542980895559AE0E8D2
:1002D000F0E0808182688083E1E8F0E080818A61DB
:1002E00080838FEF9FEF909387008093860008951F
:1002F000ECE7F0E080818F7B808380818F77808343
:10030000EAE7F0E080818760808380818068808375
:10031000089580917C00806280937C0080917A00B7
:10032000806480937A0080917A0086FDFCCF809172
:10033000790090E00895CF93DF9300D000D0CDB73F
:10034000DEB79C0150E040E029833A834B835C8315
:10035000CA01B9010E94C10D20E030E040E85AE333
:1003600069837A838B839C8369817A818B819C8169
:100370000E944F0E20E030E040EA50E469837A8327
:100380008B839C8369817A818B819C810E944F0E33
:1003900020E030E040E250E469837A838B839C83E1
:1003A00069817A818B819C810E94B30C20E030E0CE
:1003B00040E250E469837A838B839C8369817A81EC
:1003C0008B819C810E94200D69837A838B839C831F
:1003D00069817A818B819C810F900F900F900F9093
:1003E000DF91CF910895B82FA92F9B01CA01683ED4
:1003F000734038F0280F391FEB2FFA2F2D3E334072
:1004000038F081E090E008951082118201973296D1
:100410000097D1F70895FB01BA01A901E83E23E056
:10042000F20760F19B01215031092E0F3F1F2C3440
:10043000344020F5EE0FFF1FE454F640DC0190E05D
:1004400080E08617970719F490E080E00895411541
:10045000510551F421812C93208111962C931197F1
:10046000019632961296EDCF41305105C9F73C9175
:1004700011962C91119731832083F2CF81E090E087
:10048000089581E090E0089581E090E00895429A17
:10049000E8E8F0E08FEF9FEF918380832FEF84E314
:1004A0009CE0215080409040E1F700C000001182A4
:1004B0001082089590E080E00E946001E8E8F0E09A
:1004C0008FEF9FEF918380832FEF84E39CE0215097
:1004D00080409040E1F700C000008FE090E0918301
:1004E000808308959091C90098609093C9008823F3
:1004F00069F08091C90080698093C9008091C9002A
:10050000662341F088628093C90008958091C900F4
:100510008F76F2CF8F7DF7CFEF92FF920F931F93DD
:10052000CF93C22F9A01AB0184E0220F331F441FE7
:10053000551F8A95D1F760E072E18AE790E00E944A
:10054000820C215031093093CD002093CC00013032
:100550001105C9F002301105C1F480E2C730B9F0CD
:10056000C83009F486609091CA00892B8093CA0034
:1005700060E080E00E94720281E0CF911F910F91B4
:10058000FF90EF90089580E3E9CF80E0E7CF8460AB
:10059000EACF8093CE0081E008952091CE00FC0147
:1005A000208381E008951F920F920FB60F921124BD
:1005B0002F933F934F935F936F937F938F939F936B
:1005C000AF93BF93EF93FF93E0915402F0915502E4
:1005D0000995FF91EF91BF91AF919F918F917F917D
:1005E0006F915F914F913F912F910F900FBE0F90A0
:1005F0001F9018951F920F920FB60F9211242F93F0
:100600003F934F935F936F937F938F939F93AF939A
:10061000BF93EF93FF93E0915802F091590209952F
:10062000FF91EF91BF91AF919F918F917F916F91CA
:100630005F914F913F912F910F900FBE0F901F90A0
:10064000189510923A0181E0089521E020933A0133
:1006500090933C0180933B0181E00895FC018091DF
:100660003A01882349F080913B0190913C019183AC
:10067000808310923A0181E0089516BC80913D017B
:1006800090913E01892B41F080916E0082608093B1
:100690006E0080913D0187BD85B5856085BD08955B
:1006A00085B58A7F85BDEEE6F0E080818D7F808311
:1006B000A99A0895CF93DF9300D000D0CDB7DEB7CD
:1006C0009C01A4E8BEE10E94A40C69837A838B8319
:1006D0009C830E94C10D20E030E44CE956E469831C
:1006E0007A838B839C8369817A818B819C810E9430
:1006F000200D69837A838B839C8369817A818B81C6
:100700009C810E94920D70933E0160933D0114BC48
:1007100015BC0E94500381E00F900F900F900F9036
:10072000DF91CF9108951F920F920FB60F9211246F
:100730002F933F934F935F936F937F938F939F93E9
:10074000AF93BF93EF93FF93E0915602F09157025E
:100750000995FF91EF91BF91AF919F918F917F91FB
:100760006F915F914F913F912F910F900FBE0F901E
:100770001F9018959C01680F791F8FEF9FEF261728
:10078000370709F40895D901ED919D018E27482F6F
:1007900050E0FA01E458FE4F84918927FA01E458A9
:1007A000FF4F9491ECCFEF92FF920F931F93CF9353
:1007B000DF93FC01862F642FA901980187019FEF29
:1007C000980F973F38F480935101309731F031976B
:1007D00009F449C0C2E0D0E03EC0E7EDF5E0F09397
:1007E0004E01E0934D01E4EEF5E0F0934C01E0930F
:1007F0004B01E3E2F6E0F0935001E0934F01EDEEA0
:10080000F5E0F0934A01E0934901109248011092FB
:100810004701EBE7F6E0F0935902E0935802EFEC62
:10082000F6E0F0935502E0935402EFE0F7E0F09326
:100830005702E09356020E949D05EC01892B59F462
:100840000E942103882309F43FC081E090E0909347
:10085000310180933001CE01DF91CF911F910F9133
:10086000FF90EF900895E9E4F7E0F0934E01E093F4
:100870004D01E7E5F7E0F0934C01E0934B01EBE924
:10088000F7E0F0935001E0934F01E0E6F7E0F093DA
:100890004A01E09349011092480110924701EAEEA3
:1008A000F7E0F0935902E0935802E2EAF8E0F0939F
:1008B0005502E0935402E7E3F9E0F0935702E09326
:1008C00056020E942C07B9CFC3E0D0E0C4CFAB01E1
:1008D0001816D4F5F894E0E0F1E030E020E0672B62
:1008E00029F1618172816115710569F4F901EE0FD9
:1008F000FF1FE20FF31FE050FF4F808352834183BD
:1009000090E080E00BC06417750781F32F5F3F4FC5
:1009100033962031310529F784E090E078940895EA
:100920002F5F3F4F33962031310551F3908198135B
:10093000F7CFF901EE0FFF1FE20FF31FE050FF4F5B
:10094000108212821182DCCF82E090E008958091C3
:10095000300190913101019751F4E0914701F091FC
:100960004801309709F0099590E080E0089586E00D
:1009700090E008958091300190913101019761F4E8
:10098000E0914D01F0914E010995109231011092C4
:10099000300190E080E0089586E090E00895CF93E4
:1009A000DF93C0913001D0913101209779F4E0912B
:1009B0004B01F0914C01099581E090E09093310159
:1009C00080933001CE01DF91CF910895219719F0E6
:1009D000C6E0D0E0F7CFD0E0C0E0F4CF0F931F9394
:1009E000CF93DF9300D0CDB7DEB7009130011091E7
:1009F00031010115110509F09DC0CE0101960E943B
:100A00002E03813039F489819A818130910551F02A
:100A1000029721F1C8010F900F90DF91CF911F91A4
:100A20000F910895E0914901F0914A0142E451E0AB
:100A300064E471E086E491E00995892B59F780918F
:100A4000460190915101891711F08111E3CF82E0A5
:100A500090E00E94250310E000E0DCCF809144018B
:100A600090914501FC0140814093410121E030E03B
:100A70003093400120933F01E0E0F1E030E020E0DE
:100A80005081552399F045134DC0F901EE0FFF1F1A
:100A9000E20FF31FE050FF4F0180F281E02D62E48E
:100AA00071E009959093400180933F018091460148
:100AB000882309F4AFCF20913F01309140012115E7
:100AC000310501F1E0914401F0914501809141012E
:100AD00041E050E05093430140934201806880839D
:100AE000E0914401F09145018091420190914301D0
:100AF000AC014F5F5F4F5093430140934201E80FB9
:100B0000F91F2083409142015091430160914401BB
:100B100070914501E0914F01F09150018091510198
:100B2000099578CF2F5F3F4F33962031310509F07B
:100B3000A7CFBCCF06E010E06DCFCF92DF92EF924F
:100B4000FF920F931F93862F69017A01F89428E092
:100B5000BA01A6010E948C028130E1F423E230E068
:100B600040E050E081E0C8168BE4D806E104F104CF
:100B700060F4A7019601220F331F441F551F60EA3E
:100B80007FE787E190E00E94820CC9010E945A032E
:100B9000813051F083E090E078941F910F91FF90A5
:100BA000EF90DF90CF90089590E080E0F5CFF8943B
:100BB000109259011092580160E081E00E94720287
:100BC0000E943D0378940895F89460E080E00E94CC
:100BD00072020E94500378940895EF92FF920F934F
:100BE0001F93CF93DF937C01EB018A01F8948091EE
:100BF000520190915301049750F485E090E078946D
:100C0000DF91CF911F910F91FF90EF900895609128
:100C10005201709153018EE592E00E94BA03009751
:100C200061F720915E02F7012083209152013091FB
:100C3000530123503109F801318320832FE532E03D
:100C400039832883DCCFCF93DF93282FCB01F8940F
:100C5000C0915801D0915901C130D10509F048C067
:100C600001979093570180935601D0935501C093FB
:100C70005401FC0120832091540130915501240F2F
:100C8000351F3093550120935401609154017091A8
:100C900055010E94BA03492F20915401309155010A
:100CA000B9016F5F7F4F7093550160935401225AD1
:100CB0003D4FF901808380915401909155019C0131
:100CC0002F5F3F4F3093550120935401825A9D4F1F
:100CD000FC014083D0935B01C0935A0161E080E046
:100CE0000E94720290E080E07894DF91CF910895A5
:100CF00085E090E0F9CFCF93DF930F92CDB7DEB7C9
:100D0000CE0101960E94CD02809158019091590127
:100D10008230910541F128F4892B51F40E943D0362
:100D200002C00397D9F380E00F90DF91CF9108952F
:100D300010925301109252018091520190915301EF
:100D40009C012F5F3F4F3093530120935201298123
:100D5000825A9D4FFC01208382E090E090935901DC
:100D600080935801DBCF80915201909153018F3FC6
:100D7000910509F088F480915201909153019C01F2
:100D80002F5F3F4F30935301209352012981825AA4
:100D90009D4FFC012083C2CF83E090E0DFCFCF9353
:100DA00080915A0190915B01009731F0019749F0D1
:100DB000C0E08C2FCF91089560E081E00E94720224
:100DC000F7CF8091540190915501892BD1F0E0919A
:100DD0005601F091570180810E94C902809156010D
:100DE00090915701019690935701809356018091FD
:100DF00054019091550101979093550180935401AE
:100E0000D7CF83E090E00E942503C82F60E081E007
:100E10000E94720210925B0110925A01CACFCF93C6
:100E20008091580190915901009731F0C0E00297EC
:100E300041F481E090E002C090E080E00E94250350
:100E4000C82F0E94500381E090E090935901809355
:100E500058018C2FCF9108950F931F93862FBA01BD
:100E6000A901F8949AE090935C0127E00E948C021B
:100E7000813031F480E29EE40E945A03813031F0E7
:100E800083E090E078941F910F91089590E080E0C6
:100E9000F9CFF89460E081E00E947202109267013D
:100EA00010926601789490E080E00C942503F89409
:100EB00060E080E00E9472020E94500378940895DE
:100EC0000F931F93CF93DF93EC018B01DA01F8941A
:100ED0008091640190916501039750F14091640104
:100EE00050916501425A5D4F20E08EE592E08417F3
:100EF0009507C9F421111CC080915E0288838091FE
:100F000064019091650102978D939C938FE592E027
:100F1000F8019183808390E080E07894DF91CF9115
:100F20001F910F910895FC013191CF01230FDFCF65
:100F300085E090E0F2CFCF93DF93FB019A01F89424
:100F4000C0916601D0916701209709F040C03197A8
:100F5000F0936101E093600141E050E050935F0144
:100F600040935E01808380915E0190915F01820FCA
:100F7000931F90935F0180935E0120915E013091F9
:100F80005F0180E021503109F8F4819520915E01E4
:100F900030915F01A9014F5F5F4F50935F01409314
:100FA0005E01225A3D4FF901808381E090E09093E9
:100FB00069018093680161E080E00E947202789488
:100FC000CE01DF91CF9108959191890FDBCFC5E0DC
:100FD000D0E0F5CFCF93DF930F92CDB7DEB7CE0140
:100FE00001960E94CD028091660190916701813047
:100FF000910549F08230910509F468C0892B09F404
:1010000090C080E072C00E943D0399819A3349F4F8
:1010100010926301109262011092650110926401B6
:10102000F0CF9D3039F482E090E090936701809397
:101030006601E7CF80ED890F8A3030F08FEB890FA2
:10104000863018F589EC890F209162013091630197
:1010500021153105E1F02130310599F6E091640167
:10106000F0916501E25AFD4F9081892B8083809138
:1010700064019091650101969093650180936401EC
:101080001092630110926201BCCF8FEFDDCF2091EF
:101090006401309165012F3F310509F080F4E09142
:1010A0006401F0916501E25AFD4F8295807F808353
:1010B00081E090E09093630180936201A2CF10924F
:1010C0006701109266010E9450039BCF8981909125
:1010D0005C0189130EC00E945003109267011092A8
:1010E000660181E090E00E9425030F90DF91CF918F
:1010F00008958A3389F4109263011092620110926C
:1011000065011092640181E090E090936701809303
:1011100066010E943D0375CF10926701109266012F
:1011200070CF89818A3309F06CCF0E943D03109201
:10113000650110926401109263011092620181E0D6
:1011400090E073CFCF9380916801909169018230D4
:101150009105F9F038F4892B71F460E081E00E9488
:10116000720207C08330910509F466C0049709F440
:101170006AC0C0E079C08AE30E94C90282E090E0C0
:10118000909369018093680110926301109262014B
:10119000F0CF80915E0190915F01892B09F442C0EC
:1011A0008091620190916301009721F1019709F705
:1011B000E0916001F091610180818F708A3080F54B
:1011C000805D0E94C9028091600190916101019649
:1011D000909361018093600110926301109262010B
:1011E00080915E0190915F01019790935F018093E0
:1011F0005E01BFCFE0916001F09161019081892F84
:1012000082958F70903A50F4805D0E94C90281E00F
:1012100090E09093630180936201ABCF895CF5CF3E
:10122000895CCFCF8DE00E94C90283E090E090936B
:101230006901809368019DCF80915C010E94C90281
:1012400084E090E0F4CF109269011092680183E08D
:1012500090E00E942503C82F60E081E00E947202A6
:1012600010926901109268018C2FCF91089580919E
:101270006601909167010197029720F4109267012F
:10128000109266010E94500380E008951F93CF934F
:10129000DF93FC01EB0188819981059709F041C03A
:1012A00083814481582FCA0101978F3C9740C8F52C
:1012B000218162811982188281E0808388819981ED
:1012C000019699838883CA0133E0969587953A956C
:1012D000E1F7182FDA01A770BB27AB2B11F011E053
:1012E000180F118388819981019699838883722FC1
:1012F0006F5F7F4F30E020E0CF0102960E944102F5
:10130000009729F0DF91CF911F910C94380C288120
:101310003981210F311D39832883DF91CF911F91AE
:10132000089583E090E0F9CFCF93DF9300D0CDB75D
:10133000DEB7FC01DB018D919C91059729F5848135
:10134000811122C083819FEF980F9E3FE8F0918129
:1013500062811A828F3FB1F481E08983792F6F5FB8
:101360007F4F21E030E041E050E0CE0101960E9445
:101370004102009711F00E94380C0F900F90DF91FE
:10138000CF9108951982EACF83E090E0F6CFCF9312
:10139000DF93FC01EB0188819981069790F18381AD
:1013A0004481582F9A0183E0369527958A95E1F775
:1013B000822FBA0167707727672B11F081E0820FC7
:1013C0009A0121503109203B3740D8F49581891387
:1013D00018C081816281782F6F5F7F4F21E030E0FC
:1013E000CF0106960E944102009721F0DF91CF9134
:1013F0000C94380C25E030E039832883DF91CF91BD
:10140000089583E090E0FACFFC01DB018D919C917F
:10141000059789F481816281782F6F5F7F4F21E08A
:1014200030E041E050E0CF0103960E940B020097AC
:1014300021F00C94380C83E090E00895CF93DF9373
:10144000FC01EB0188819981069728F18381448111
:10145000582FCA01019788379105E8F49581842FA8
:10146000880F891318C081816281782F6F5F7F4F49
:1014700021E030E0CF0106960E940B02009721F098
:10148000DF91CF910C94380C25E030E0398328832C
:10149000DF91CF91089583E090E0FACF0F931F93EF
:1014A000CF93DF93FC01EB01888199810597D9F5F2
:1014B0008481082F10E09801215031092D37310522
:1014C00090F5418162811982188293E0908328818E
:1014D00039812F5F3F4F39832883880F818388812B
:1014E0009981019699838883742F6F5F7F4F30E0D5
:1014F00020E0A801CF0102960E940B02009731F074
:10150000DF91CF911F910F910C94380C000F111F98
:1015100028813981020F131F19830883DF91CF912E
:101520001F910F91089583E090E0F8CFCF92DF9262
:10153000EF92FF920F931F93CF93DF93EC018B01F8
:10154000FB01808191810A9708F45AC08B81EC805D
:10155000F82EC70101978D37910508F054C08F818F
:101560004885582FCA0101978937910508F04BC06B
:101570002985CA01880F991F2817190609F043C049
:10158000C980DA808D816E81782F6F5F7F4F21E077
:1015900030E0CE010A960E940B020097B9F5F801DF
:1015A0001182108287E188838081918101969183E5
:1015B00080838E2D880F898380819181019691830C
:1015C00080837C2D6D2D6F5F7F4F30E020E0A70181
:1015D000CE0102960E940B020097C1F4EE0CFF1C94
:1015E000F80120813181E20EF31EF182E082DF9169
:1015F000CF911F910F91FF90EF90DF90CF900895C2
:1016000090E080E0F4CF83E090E0F1CFDF91CF91E4
:101610001F910F91FF90EF90DF90CF900C94380CBA
:101620000F931F93CF93DF93FC01EB018881998186
:101630000597C1F583810481182FC80101978C3764
:10164000910580F5218162811982188284E080836E
:1016500088819981019699838883802F880F81835F
:1016600088819981019699838883722F6F5F7F4F5C
:10167000A801CF0102960E94F301009731F0DF919B
:10168000CF911F910F910C94380C000F111F2881DE
:101690003981020F131F19830883DF91CF911F91A6
:1016A0000F91089583E090E0F8CFCF93DF93962FCA
:1016B000BA01A901E9012296C032D10500F5809353
:1016C0006C0122E030E030936B0120936A0181E0ED
:1016D000911101C080E0819580936D014115510504
:1016E00051F08EE691E00E94BC0ED0936B01C09346
:1016F0006A0150E040E0CA01DF91CF91089544E0D3
:1017000050E0F9CF0F931F93CF93DF938B01C091DC
:101710006A01D0916B01AE016CE671E001960E9406
:10172000BC0E2196F801D183C08390E080E0DF9168
:10173000CF911F910F9108951F93CF93DF93FC01D9
:10174000EB0188819981059709F03FC0838144812D
:10175000582FCA0101978F3C9740B8F521816281CB
:101760001982188282E08083888199810196998309
:101770008883CA0133E0969587953A95E1F7182F4B
:10178000DA01A770BB27AB2B11F011E0180F118302
:1017900088819981019699838883722F6F5F7F4F2B
:1017A000CF0102960E944402009729F0DF91CF9169
:1017B0001F910C94380C28813981210F311D3983F8
:1017C0002883DF91CF911F91089583E090E0F9CFB6
:1017D000CF93DF93FC0130E0EB0183E0D695C79512
:1017E0008A95E1F76770772781E090E002C0880F63
:1017F000991F4A95E2F70197DF01AC0FBD1F4C918D
:101800002196EC0FFD1F5081062E02C0880F991FF4
:101810000A94E2F78095909548235923C90102C0A4
:10182000880F991F6A95E2F7842B952B8C939083F0
:10183000DF91CF9108959B01FB0153E0F695E79569
:101840005A95E1F7E80FF91F8081918127703327BE
:10185000BC0102C0769567952A95E2F781E090E099
:1018600002C0880F991F4A95E2F7019786230895D1
:101870009C01089730F42E5C3E4FF901808190E086
:10188000089584E090E008950E9466010E945D0141
:101890000E94780127982F9A219AF12CE12C00E0E0
:1018A00016E920E030E040E06AE090E080E00E944D
:1018B000D30378940E94BA040E94EE041F990FC0CB
:1018C0001092910110929001299A2FEF81EE94E0ED
:1018D000215080409040E1F700C00000299880919D
:1018E0008E0190918F018130910539F40E94470259
:1018F00010928F0110928E01DFCF0297E9F60E94BD
:101900005A02F6CFA1E21A2EAA1BBB1BFD010DC085
:10191000AA1FBB1FEE1FFF1FA217B307E407F5079F
:1019200020F0A21BB30BE40BF50B661F771F881F7B
:10193000991F1A9469F760957095809590959B0111
:10194000AC01BD01CF010895A29FB001B39FC001BA
:10195000A39F700D811D1124911DB29F700D811DDB
:101960001124911D08955058BB27AA270E94CB0C23
:101970000C94150E0E94070E38F00E940E0E20F0F7
:1019800039F49F3F19F426F40C94040E0EF4E095FC
:10199000E7FB0C94FE0DE92F0E94260E58F3BA17B0
:1019A000620773078407950720F079F4A6F50C9475
:1019B000480E0EF4E0950B2EBA2FA02D0B01B901A5
:1019C00090010C01CA01A0011124FF27591B99F0B5
:1019D000593F50F4503E68F11A16F040A22F232FC1
:1019E000342F4427585FF3CF469537952795A79511
:1019F000F0405395C9F77EF41F16BA0B620B730BB8
:101A0000840BBAF09150A1F0FF0FBB1F661F771F28
:101A1000881FC2F70EC0BA0F621F731F841F48F4DD
:101A2000879577956795B795F7959E3F08F0B0CF66
:101A30009395880F08F09927EE0F9795879508954D
:101A40000E94340D0C94150E0E940E0E58F00E9448
:101A5000070E40F029F45F3F29F00C94FE0D511160
:101A60000C94490E0C94040E0E94260E68F39923E0
:101A7000B1F3552391F3951B550BBB27AA2762178A
:101A80007307840738F09F5F5F4F220F331F441F97
:101A9000AA1FA9F335D00E2E3AF0E0E832D09150CB
:101AA0005040E695001CCAF72BD0FE2F29D0660FB8
:101AB000771F881FBB1F261737074807AB07B0E8FB
:101AC00009F0BB0B802DBF01FF2793585F4F3AF001
:101AD0009E3F510578F00C94FE0D0C94490E5F3F2B
:101AE000E4F3983ED4F3869577956795B795F79587
:101AF0009F5FC9F7880F911D9695879597F908956F
:101B0000E1E0660F771F881FBB1F6217730784070A
:101B1000BA0720F0621B730B840BBA0BEE1F88F719
:101B2000E09508950E942E0E88F09F5798F0B92FE7
:101B30009927B751B0F0E1F0660F771F881F991F02
:101B40001AF0BA95C9F714C0B13091F00E94480E4E
:101B5000B1E008950C94480E672F782F8827B85F5E
:101B600039F0B93FCCF3869577956795B395D9F75A
:101B70003EF490958095709561957F4F8F4F9F4F64
:101B80000895E89409C097FB3EF490958095709570
:101B900061957F4F8F4F9F4F9923A9F0F92F96E9B9
:101BA000BB279395F695879577956795B795F1112E
:101BB000F8CFFAF4BB0F11F460FF1BC06F5F7F4FCB
:101BC0008F4F9F4F16C0882311F096E911C07723DD
:101BD00021F09EE8872F762F05C0662371F096E8E6
:101BE000862F70E060E02AF09A95660F771F881FB5
:101BF000DAF7880F9695879597F9089597F99F6773
:101C000080E870E060E008959FEF80EC0895002484
:101C10000A941616170618060906089500240A9451
:101C200012161306140605060895092E0394000CD7
:101C300011F4882352F0BB0F40F4BF2B11F460FF66
:101C400004C06F5F7F4F8F4F9F4F089557FD90588F
:101C5000440F551F59F05F3F71F04795880F97FB70
:101C6000991F61F09F3F79F087950895121613062A
:101C70001406551FF2CF4695F1DF08C01616170659
:101C80001806991FF1CF869571056105089408958E
:101C9000E894BB2766277727CB0197F908950E9420
:101CA000620E0C94150E0E94070E38F00E940E0E64
:101CB00020F0952311F00C94FE0D0C94040E1124C9
:101CC0000C94490E0E94260E70F3959FC1F3950F58
:101CD00050E0551F629FF001729FBB27F00DB11DB0
:101CE000639FAA27F00DB11DAA1F649F6627B00D40
:101CF000A11D661F829F2227B00DA11D621F739F29
:101D0000B00DA11D621F839FA00D611D221F749F36
:101D10003327A00D611D231F849F600D211D822F7D
:101D2000762F6A2F11249F5750409AF0F1F08823A4
:101D30004AF0EE0FFF1FBB1F661F771F881F9150D1
:101D40005040A9F79E3F510580F00C94FE0D0C9475
:101D5000490E5F3FE4F3983ED4F3869577956795F7
:101D6000B795F795E7959F5FC1F7FE2B880F911DFB
:101D70009695879597F90895FB01DC0102C00190C3
:0E1D80000D9241505040D8F70895F894FFCFCF
:101D8E0011820B04100B034E0A101E0A06040A17CA
:101D9E00960A0146090594090FC709029C0B00001B
:101DAE000000000000000000000000000000000025
:0A1DBE0002000002040404040406FD
:00000001FF
